:100000000C9434000C9451000C9451000C94510049
:100010000C9451000C9451000C949C020C945100CF
:100020000C9451000C9451000C9451000C9451000C
:100030000C9451000C9451000C9451000C945100FC
:100040000C947A000C9451000C94CA020C94510048
:100050000C9451000C9451000C9451000C945100DC
:100060000C9451000C94510011241FBECFEFD4E02A
:10007000DEBFCDBF12E0A0E0B1E0E4E4F7E102C0F2
:1000800005900D92A033B107D9F712E0A0E3B2E0DA
:1000900001C01D92AD3CB107E1F70E9453000C94E2
:1000A000A00B0C9400008CE090E00E94EF020E94F4
:1000B00062000E946E020E9481020E9418040E9447
:1000C0002D03FDCF81E085BB80936E0085BD8FE35E
:1000D00084B987B980E090E0FC01EF5BFD4F1082AE
:1000E000FC01EB5CFD4F108201968C309105A1F76D
:1000F000789408951F920F920FB60F9211248F9348
:100100009F938091000185B98091010188B99091F8
:1001100030029F5F90933002903809F484C0809140
:100120004102891709F479C080914202981709F4B5
:100130006EC080914302981709F463C08091440215
:10014000981709F458C080914502981709F44DC0DA
:1001500080914602981709F442C08091470298178F
:10016000C1F180914802981771F180914902981766
:1001700021F180914A029817D1F080914B02981793
:1001800081F080914C02981729F4809101018F7DB4
:10019000809301019F918F910F900FBE0F901F9040
:1001A0001895809101018F7E80930101EACF8091A3
:1001B0000101877F80930101E0CF809101018B7F56
:1001C00080930101D6CF809101018D7F8093010141
:1001D000CCCF809101018E7F80930101C2CF8091AD
:1001E00000018F7D80930001B8CF809100018F7E48
:1001F00080930001ADCF80910001877F8093000143
:10020000A2CF809100018B7F8093000197CF8091D6
:1002100000018D7F809300018CCF809100018E7F43
:100220008093000181CF80913102813049F010929A
:1002300030028FE3809300018093010190E06FCF43
:100240008091350280934102809136028093420270
:100250008091370280934302809138028093440258
:10026000809139028093450280913A028093460240
:1002700080913B028093470280913C028093480228
:1002800080913D028093490280913E0280934A0210
:1002900080913F0280934B028091400280934C02F8
:1002A00010923102C4CF9C01E62F009751F0CA0191
:1002B000B9010E942C0B892B21F4121613061CF491
:1002C000EF5F8E2F0895E150FCCF70E0681B71093D
:1002D0006115710521F08CEF93E00E942C0BCB018E
:1002E00008952F923F924F925F926F927F928F92DA
:1002F0009F92AF92BF92CF92DF92EF92FF920F93B5
:100300001F93DF93CF9300D000D000D0CDB7DEB7DE
:10031000F82E09E512E0CC24DD24F601EB5CFD4F5C
:10032000D601AF58BD4F80816C910E946501F801E4
:10033000819391938F010894C11CD11CFCE0CF16CE
:10034000D10459F76F2D70E080E090E00E94BE0864
:1003500069837A838B839C832BEA3AEA4AE250E4EE
:100360000E9434062B013C012224332485E3C82E4D
:1003700082E0D82E89E592E09E838D83ED81FE8117
:1003800080819181F6016081A1010E945301F601F3
:100390008083C301B20120E030E040E85FE30E94C7
:1003A0003A0888230CF48DC0C301B20120E030E08C
:1003B0004FE753E40E94DA0718160CF07BC06981FE
:1003C0007A818B819C8120E030E04AE754E40E94EE
:1003D0002E074B015C0120E030E04AEF54E40E941C
:1003E00034067B018C0120E030E040E85FE30E94AE
:1003F0003A0888230CF46FC0C801B70120E03FEF32
:100400004FE757E40E94DA0718160CF05CC0C501EC
:10041000B40120E030E040E251E40E9434060E9442
:100420005E04CB01672B31F0E8ECF0E03197F1F797
:100430000197D1F78D819E8102969E838D830894CA
:10044000C11CD11C8157924009F098CF0894211CFF
:10045000311CFCEF2F16F3E03F0609F087CF20E0B8
:1004600030E0F901EB5CFD4FD901AF58BD4F8C91E5
:1004700080832F5F3F4F2C30310599F781E08093C7
:10048000310226960FB6F894DEBF0FBECDBFCF91D6
:10049000DF911F910F91FF90EF90DF90CF90BF9071
:1004A000AF909F908F907F906F905F904F903F9014
:1004B0002F900895C301B2010E945E046A95F1F77E
:1004C000B9CF61E0FBCFC801B7010E945E04CB0148
:1004D0000197F1F7AFCF61E070E0F9CF539A109236
:1004E000B40083E28093B00081E08093B100109269
:1004F0007000789408958093B40008958091B400BA
:10050000089510928000E1E8F0E0108210928500DA
:100510001092840087E0808396EC88E10FB6F8940F
:10052000A89580936000909360000FBE089580911D
:1005300032029091330208951F920F920FB60F92DC
:1005400011242F933F938F939F93EF93FF93E4E8AE
:10055000F0E020813181C901880F991F820F931F1C
:100560009C01220F331F220F331F820F931F880F0E
:10057000991F909333028093320211821082FF916F
:10058000EF919F918F913F912F910F900FBE0F9000
:100590001F9018951F920F920FB60F9211248F93F0
:1005A0009F93EF93FF93809134029091C600E82FC0
:1005B000F0E0E358FD4F90838F5F809334028134E5
:1005C00010F010923402FF91EF919F918F910F9054
:1005D0000FBE0F901F90189580913402089590934C
:1005E000C5008093C40086E08093C20088E98093B0
:1005F000C100089590913402992381F020917D02E9
:10060000EDE7F2E08181819382E0EC3BF807D1F7DE
:100610001082915090933402822F089520E0822F0F
:100620000895109234020895982F8091C00085FF9C
:10063000FCCF00009093C6000895FC01908199239F
:1006400059F08091C00085FFFCCF00009093C60058
:10065000918131969923A9F70895EF92FF920F9314
:100660001F93DF93CF93CDB7DEB728970FB6F894DB
:10067000DEBF0FBECDBF10E000E07E010894E11C9C
:10068000F11C0E94EC028823E1F30E94FA0287FD2C
:1006900030C0F701E10FF11D8083113069F11017AF
:1006A00030F1998120912701822F8068981779F085
:1006B000903869F028960FB6F894DEBF0FBECDBF14
:1006C000CF91DF911F910F91FF90EF9008958A8154
:1006D000833041F0843028F5813009F464C08230E1
:1006E00009F064C081E00E94140360C002E01F5F53
:1006F000C8CF898311E0C5CF90E0807690708034B8
:100700009105A1F38134910534F4009751F280975B
:1007100041F212E0B6CF80369105D9F704E01F5FB1
:10072000B0CF813409F045C08B81982F80FF0CC079
:100730008091BF02809335028091BE028093360281
:100740008091BD028093370291FF0CC08091BF025F
:10075000809338028091BE02809339028091BD025D
:1007600080933A0292FF0CC08091BF0280933B02BB
:100770008091BE0280933C028091BD0280933D0235
:1007800093FF0CC08091BF0280933E028091BE0215
:1007900080933F028091BD028093400296FF03C088
:1007A00081E080933102822F0E9414030E94110382
:1007B00081CF813639F08430C9F782E091E00E9420
:1007C0001D03F4CF8B818093BF028C818093BE0286
:1007D0008D818093BD02E7CF20E030E0F901EB5C32
:1007E000FD4FD901AF53BD4F8C9180832F5F3F4F99
:1007F0002C30310599F78091C0020E947B02089548
:10080000CF93DF93C1E0D0E0CE010E948A0BFE01BE
:10081000E054FD4F80832196CD30D105A9F78DE0BE
:1008200090E00E948A0B8093C002DF91CF910895DF
:100830000E94000420E030E0F901EF58FD4FD9019B
:10084000AF53BD4F8C9180832F5F3F4F2C303105CC
:1008500099F78FEF0E947B0288EC90E00197F1F707
:100860008091C0020E947B0284E60E947101E1E750
:10087000F2E0119282E0ED37F807D9F70895CF93AF
:10088000DF93C1E0D0E0FE01EC5CFD4F6081FE0132
:10089000E054FD4F6083CE010E94920B2196CD3033
:1008A000D10589F70E947E02682F8093C0028DE0F7
:1008B00090E00E94920BDF91CF910895EF92FF920A
:1008C0000F931F937B018C0120E030E040E05FE458
:1008D0000E940A0888238CF0C801B70120E030E0AC
:1008E00040E05FE40E94D6050E946A089B01AC01CB
:1008F000205030404040504806C0C801B7010E9417
:100900006A089B01AC01B901CA011F910F91FF90C8
:10091000EF900895A0E0B0E0E0E9F4E00C94530B10
:10092000DC012B01FA019C91923008F439C1EB01F2
:100930008881823008F433C1943069F4843009F03E
:100940002FC111969C9111978981981709F428C19C
:10095000A8E2B1E025C1843009F421C18230A9F4B4
:10096000923009F01DC19A01AD0188E0EA010990B9
:10097000AE01E90109929E018150C1F7E20189812E
:1009800011969C918923818308C1923009F407C193
:1009900012962D903C901397EB018A819B811496BF
:1009A000AD90BD90CD90DC901797EC80FD800E81CE
:1009B0001F819101281B390BB90137FF04C066273D
:1009C0007727621B730B603271050CF061C0121641
:1009D00013066CF537014801062E04C096948794DF
:1009E000779467940A94D2F721E030E040E050E039
:1009F00004C0220F331F441F551F6A95D2F72150A0
:100A00003040404050402E213F21402351232115AA
:100A100031054105510521F021E030E040E050E092
:100A200079018A01E628F728082919293CC0232BD7
:100A3000D1F1260E371E35014601062E04C09694CC
:100A40008794779467940A94D2F721E030E040E0ED
:100A500050E004C0220F331F441F551F6A95D2F780
:100A600021503040404050402A213B214C215D2103
:100A7000211531054105510521F021E030E040E02C
:100A800050E059016A01A628B728C828D9280BC008
:100A9000821593052CF01C01AA24BB24650103C018
:100AA000EE24FF24870111969C91D20111968C911E
:100AB000981709F445C0992339F0A80197012A191C
:100AC0003B094C095D0906C0A60195012E193F0995
:100AD000400B510B57FD08C01182338222822483C0
:100AE0003583468357831DC081E081833382228210
:100AF00088279927DC01821B930BA40BB50B8483F9
:100B00009583A683B7830DC0220F331F441F551F43
:100B1000248335834683578382819381019793830E
:100B200082832481358146815781DA01C901019789
:100B3000A109B1098F5F9F4FAF4FBF4328F30BC08F
:100B4000918333822282EA0CFB1C0C1D1D1DE48262
:100B5000F5820683178383E0808324813581468173
:100B6000578157FF1AC0C901AA2797FDA095BA2F30
:100B700081709070A070B070569547953795279505
:100B8000822B932BA42BB52B84839583A683B783C9
:100B900082819381019693838283DF0101C0D20118
:100BA000CD01CDB7DEB7E2E10C946F0BA0E2B0E06F
:100BB000ECEDF5E00C945F0B69837A838B839C8367
:100BC0002D833E834F835887E9E0EE2EF12CEC0E07
:100BD000FD1ECE010196B7010E945B0A8E010F5ED9
:100BE0001F4FCE010596B8010E945B0A8A8991E0E9
:100BF00089278A8BC701B801AE01475E5F4F0E940B
:100C00008A040E948609A096E6E00C947B0BA0E281
:100C1000B0E0EDE0F6E00C945F0B69837A838B83A0
:100C20009C832D833E834F835887F9E0EF2EF12C70
:100C3000EC0EFD1ECE010196B7010E945B0A8E01EB
:100C40000F5E1F4FCE010596B8010E945B0AC701D7
:100C5000B801AE01475E5F4F0E948A040E94860978
:100C6000A096E6E00C947B0BA0E2B0E0EAE3F6E0AD
:100C70000C94530B69837A838B839C832D833E83EF
:100C80004F835887CE010196BE01675F7F4F0E9458
:100C90005B0ACE010596BE016F5E7F4F0E945B0A24
:100CA0009985923088F089898230C8F0943019F49F
:100CB000823051F404C0843029F4923081F488E207
:100CC00091E0C6C0923049F420E09A858A89981351
:100CD00021E02A87CE010996BBC0823049F420E08A
:100CE0009A858A89981321E02A8BCE014196B0C05B
:100CF0002D843E844F8458886D887E888F88988C98
:100D0000EE24FF248701AA24BB24650140E050E0C3
:100D100060E070E0E0E0F0E0C10181709070892B4C
:100D2000E9F0E60CF71C081D191D9A01AB012A0D0C
:100D30003B1D4C1D5D1D80E090E0A0E0B0E0E6149E
:100D4000F7040805190520F481E090E0A0E0B0E088
:100D5000BA01A901480F591F6A1F7B1FAA0CBB1CAF
:100D6000CC1CDD1C97FE08C081E090E0A0E0B0E064
:100D7000A82AB92ACA2ADB2A3196E032F10549F0BD
:100D8000660C771C881C991C5694479437942794BA
:100D9000C3CFFA85EA892B893C898B859C85280FEE
:100DA000391F2E5F3F4F17C0CA0181709070892B89
:100DB00061F016950795F794E79480E090E0A0E045
:100DC000B0E8E82AF92A0A2B1B2B769567955795E8
:100DD00047952F5F3F4F77FDE7CF0CC0440F551F5E
:100DE000661F771F17FD4160EE0CFF1C001F111FCF
:100DF00021503040403090E0590790E0690790E47E
:100E0000790760F32B8F3C8FDB01CA018F779070DD
:100E1000A070B07080349105A105B10561F447FD63
:100E20000AC0E114F1040105110529F0405C5F4F8F
:100E30006F4F7F4F40781A8EFE1711F081E08A8F36
:100E40004D8F5E8F6F8F78A383E0898FCE01499697
:100E50000E948609A096E2E10C946F0BA8E1B0E035
:100E6000E4E3F7E00C945B0B69837A838B839C83C8
:100E70002D833E834F835887B9E0EB2EF12CEC0E87
:100E8000FD1ECE010196B7010E945B0A8E010F5E26
:100E90001F4FCE010596B8010E945B0A29852230BA
:100EA00008F47EC03989323010F4B8017CC08A85DC
:100EB0009A8989278A87243011F0223031F4231748
:100EC00009F06EC068E271E06EC0343039F41D86FE
:100ED0001E861F86188A1C861B8604C0323021F4A9
:100EE00084E08987B7015FC02B853C858B899C890D
:100EF000281B390B3C872B87ED84FE840F851889CE
:100F0000AD88BE88CF88D88CEA14FB040C051D057B
:100F100040F4EE0CFF1C001F111F215030403C8795
:100F20002B8720E030E040E050E080E090E0A0E05F
:100F3000B0E460E070E0EA14FB040C051D0540F02D
:100F4000282B392B4A2B5B2BEA18FB080C091D09AF
:100F5000B695A79597958795EE0CFF1C001F111F5E
:100F60006F5F7F4F6F31710531F7DA01C9018F77FC
:100F70009070A070B07080349105A105B10561F446
:100F800027FD0AC0E114F1040105110529F0205CD8
:100F90003F4F4F4F5F4F20782D873E874F87588BAD
:100FA000BE01675F7F4FCB010E9486096896EAE029
:100FB0000C94770BA8E1B0E0E0EEF7E00C945F0B47
:100FC00069837A838B839C832D833E834F835887E9
:100FD00089E0E82EF12CEC0EFD1ECE010196B70142
:100FE0000E945B0A8E010F5E1F4FCE010596B8016D
:100FF0000E945B0A8985823040F08989823028F01E
:10100000C701B8010E94D30A01C08FEF6896E6E0DD
:101010000C947B0BA8E1B0E0E0E1F8E00C945F0BEE
:1010200069837A838B839C832D833E834F83588788
:1010300089E0E82EF12CEC0EFD1ECE010196B701E1
:101040000E945B0A8E010F5E1F4FCE010596B8010C
:101050000E945B0A8985823040F08989823028F0BD
:10106000C701B8010E94D30A01C08FEF6896E6E07D
:101070000C947B0BA8E1B0E0E0E4F8E00C945F0B8B
:1010800069837A838B839C832D833E834F83588728
:1010900089E0E82EF12CEC0EFD1ECE010196B70181
:1010A0000E945B0A8E010F5E1F4FCE010596B801AC
:1010B0000E945B0A8985823040F08989823028F05D
:1010C000C701B8010E94D30A01C081E06896E6E03A
:1010D0000C947B0BACE0B0E0E0E7F8E00C94630B21
:1010E00069837A838B839C83CE010196BE016B5FFB
:1010F0007F4F0E945B0A8D81823061F1823050F116
:10110000843021F48E81882351F12EC02F813885BF
:1011100037FD20C06E812F3131051CF06623F9F0B8
:1011200023C08EE190E0821B930B29853A854B8585
:101130005C8504C056954795379527958A95D2F7D3
:101140006623B1F050954095309521953F4F4F4F14
:101150005F4F0EC020E030E040E050E009C02FEFCC
:101160003FEF4FEF5FE704C020E030E040E050E8A1
:10117000B901CA012C96E2E00C947F0BA8E0B0E024
:10118000E4ECF8E00C945B0B7B018C0161157105BC
:101190008105910519F482E0898360C083E0898329
:1011A0008EE1C82ED12CDC82CB82ED82FE820F83B1
:1011B0001887C801B7010E943709FC013197F7FF72
:1011C0003BC0222733272E1B3F0B57016801022EFD
:1011D00004C0D694C794B794A7940A94D2F740E079
:1011E00050E060E070E081E090E0A0E0B0E004C09A
:1011F000880F991FAA1FBB1F2A95D2F70197A10933
:10120000B1098E219F21A023B1230097A105B1052B
:1012100021F041E050E060E070E04A295B296C2950
:101220007D294D835E836F8378878EE190E08E1BEE
:101230009F0B9C838B8312C0309781F00E2E04C0CD
:10124000EE0CFF1C001F111F0A94D2F7ED82FE82E4
:101250000F831887CE1ADF0ADC82CB821A82CE0176
:1012600001960E9486092896EAE00C94770BEF928B
:10127000FF920F931F937B018C0180E0E81680E0C2
:10128000F80681E0080780E0180788F48FEFE81679
:10129000F1040105110531F028F088E090E0A0E0AC
:1012A000B0E017C080E090E0A0E0B0E012C080E0C5
:1012B000E81680E0F80680E0080781E0180728F0CB
:1012C00088E190E0A0E0B0E004C080E190E0A0E020
:1012D000B0E020E230E040E050E0281B390B4A0B40
:1012E0005B0B04C016950795F794E7948A95D2F79F
:1012F000F701E05DFE4F8081281B3109410951094A
:10130000C9011F910F91FF90EF900895DF92EF9226
:10131000FF920F931F93FC01E480F58006811781F3
:10132000D1808081823048F480E090E0A0E1B0E09C
:10133000E82AF92A0A2B1B2BA5C0843009F49FC088
:10134000823021F4EE24FF24870105C0E114F1046A
:101350000105110519F4E0E0F0E096C062817381A7
:101360009FEF623879070CF05BC022E83FEF261B45
:10137000370B2A3131052CF020E030E040E050E01E
:101380002AC0B801A701022E04C07695679557952B
:1013900047950A94D2F781E090E0A0E0B0E004C065
:1013A000880F991FAA1FBB1F2A95D2F70197A10981
:1013B000B1098E219F21A023B1230097A105B1057A
:1013C00021F081E090E0A0E0B0E09A01AB01282B91
:1013D000392B4A2B5B2BDA01C9018F779070A070F3
:1013E000B07080349105A105B10539F427FF09C01B
:1013F000205C3F4F4F4F5F4F04C0215C3F4F4F4F2A
:101400005F4FE0E0F0E02030A0E03A07A0E04A07BC
:10141000A0E45A0710F0E1E0F0E079018A0127C06A
:101420006038710564F5FB01E158FF4FD801C70131
:101430008F779070A070B07080349105A105B105D0
:1014400039F4E7FE0DC080E490E0A0E0B0E004C015
:101450008FE390E0A0E0B0E0E80EF91E0A1F1B1F2A
:1014600017FF05C016950795F794E794319687E026
:1014700016950795F794E7948A95D1F705C0EE2461
:10148000FF248701EFEFF0E06E2F679566276795E1
:10149000902F9F77D794DD24D7948E2F8695492F50
:1014A000462B582F5D29B701CA011F910F91FF905C
:1014B000EF90DF900895FC01DB0140815181228192
:1014C000622F6F7770E0221F2227221F9381892FBE
:1014D000880F822B282F30E0991F9927991F11968A
:1014E0009C93119721153105A9F541155105610509
:1014F000710511F482E037C082E89FEF13969C9348
:101500008E9312979A01AB0167E0220F331F441F9D
:10151000551F6A95D1F783E08C930DC0220F331FBE
:10152000441F551F12968D919C9113970197139606
:101530009C938E931297203080E0380780E0480714
:1015400080E4580758F314962D933D934D935C9384
:10155000179708952F3F310579F44115510561051D
:10156000710519F484E08C93089564FF03C081E051
:101570008C9312C01C9210C02F57304013963C938E
:101580002E93129783E08C9387E0440F551F661FBC
:10159000771F8A95D1F7706414964D935D936D9380
:1015A0007C93179708951F93DC01FB019C91923067
:1015B00008F447C08081823008F443C0943051F46D
:1015C00011961C91843099F58181682F70E0611B20
:1015D00071093FC0843021F0923031F48230B9F18A
:1015E0008181882389F12DC011961C911197823039
:1015F000F1F081811817D9F412962D913C9113972F
:10160000828193818217930794F028173907BCF0E1
:1016100014968D919D910D90BC91A02D24813581C2
:1016200046815781281739074A075B0718F41123A9
:1016300041F00AC082179307A407B50740F41123AD
:1016400019F061E070E005C06FEF7FEF02C060E06D
:1016500070E0CB011F91089597FB092E07260AD051
:1016600077FD04D00CD006D000201AF47095619557
:101670007F4F0895F6F7909581959F4F0895AA1B87
:10168000BB1B51E107C0AA1FBB1FA617B70710F06D
:10169000A61BB70B881F991F5A95A9F7809590959F
:1016A000BC01CD0108952F923F924F925F926F92AD
:1016B0007F928F929F92AF92BF92CF92DF92EF92E2
:1016C000FF920F931F93CF93DF93CDB7DEB7CA1B63
:1016D000DB0B0FB6F894DEBF0FBECDBF09942A888E
:1016E000398848885F846E847D848C849B84AA8436
:1016F000B984C884DF80EE80FD800C811B81AA81C3
:10170000B981CE0FD11D0FB6F894DEBF0FBECDBF8D
:10171000ED010895F999FECF92BD81BDF89A992700
:1017200080B50895262FF999FECF1FBA92BD81BDCD
:1017300020BD0FB6F894FA9AF99A0FBE0196089553
:04174000F894FFCF4B
:101744003F3F46616E427573203420524742204C1D
:1017540045442046616E20436F6E74726F6C6C65F5
:10176400722076312E3000270000000000000000B7
:101774000001020203030303040404040404040434
:101784000505050505050505050505050505050505
:1017940006060606060606060606060606060606E5
:1017A40006060606060606060606060606060606D5
:1017B40007070707070707070707070707070707B5
:1017C40007070707070707070707070707070707A5
:1017D4000707070707070707070707070707070795
:1017E4000707070707070707070707070707070785
:1017F4000808080808080808080808080808080865
:101804000808080808080808080808080808080854
:101814000808080808080808080808080808080844
:101824000808080808080808080808080808080834
:101834000808080808080808080808080808080824
:101844000808080808080808080808080808080814
:101854000808080808080808080808080808080804
:1018640008080808080808080808080808080808F4
:00000001FF
