:100000000C9495000C94B2000C94B2000C94B200C5
:100010000C94B2000C94B2000C94DE020C94B2006A
:100020000C94B2000C94B2000C94B2000C94B20088
:100030000C94B2000C94B2000C94B2000C94B20078
:100040000C94DB000C94B2000C9409030C94B200E5
:100050000C94B2000C94B2000C94B2000C94B20058
:100060000C94B2000C94B200BB03BD03BF03C303E6
:100070008604860486048604860486048604860430
:100080008604860486048604C703CB03CE03860455
:100090008604860486048604860486048604860410
:1000A0008604860486048604D803DC03E003E403A4
:1000B000E803EC03F003F403F803FC030004040476
:1000C000860486048604860408040B040E041104C6
:1000D000140417041A041D0420042304260429040C
:1000E00086048604860486042C0430043404380410
:1000F0003C044004440448044C0450045404580490
:1001000086048604860486045C045F046204650435
:1001100068046B046E047104740477047A047D042B
:100120008604860486048604800411241FBECFEF53
:10013000D4E0DEBFCDBF12E0A0E0B1E0EEE8F8E130
:1001400002C005900D92AA30B107D9F712E0AAE0DB
:10015000B2E001C01D92A63AB107E1F70E94B400D7
:100160000C94450C0C9400008CE090E00E943E033F
:100170000E94C3000E94B0020E94C3020E94BD04FC
:100180000E948403FDCF81E085BB80936E0085BD16
:100190008FE384B987B980E090E0FC01E35EFD4F16
:1001A0001082FC01EF5EFD4F108201968C309105AC
:1001B000A1F7789408951F920F920FB60F92112411
:1001C0008F939F938091000185B98091010188B937
:1001D00090910A029F5F90930A029923A9F580915A
:1001E000110280931D028091120280931E02809161
:1001F000130280931F028091140280932002809149
:100200001502809321028091160280932202809130
:100210001702809323028091180280932402809118
:1002200019028093250280911A0280932602809100
:100230001B028093270280911C02809328028FE387
:10024000809300018093010180911D02891729F498
:10025000809100018E7F8093000180911E0289179A
:1002600029F4809100018D7F8093000180911F020D
:10027000891729F4809100018B7F80930001809180
:100280002002891729F480910001877F8093000163
:1002900080912102891729F4809100018F7E80933B
:1002A000000180912202891729F4809100018F7D3D
:1002B0008093000180912302891729F48091010124
:1002C0008E7F8093010180912402891729F4809107
:1002D00001018D7F8093010180912502891729F406
:1002E000809101018B7F8093010180912602891703
:1002F00029F480910101877F809301018091270279
:10030000891729F4809101018F7E809301018091EA
:100310002802891729F4809101018F7D80930101C2
:100320009F918F910F900FBE0F901F9018959C0179
:10033000E62F009761F0CA01B9010E94D10B892B09
:1003400031F41216130614F4EF5F01C0E1508E2F42
:10035000089570E0681B71096115710521F08CEF3B
:1003600093E00E94D10BCB0108952F923F924F92C0
:100370005F926F927F928F929F92AF92BF92CF9235
:10038000DF92EF92FF920F931F93DF93CF93CDB73E
:10039000DEB727970FB6F894DEBF0FBECDBFF82E9D
:1003A00095E3C92E92E0D92E00E010E0F801EF5E4F
:1003B000FD4FD801A35BBD4F80816C910E94A901C4
:1003C000F601819391936F010F5F1F4F0C30110560
:1003D00069F76F2D70E080E090E00E9463096A8306
:1003E0007B838C839D832BEA3AEA4AE250E40E94A5
:1003F000D9063B014C010E94030569832224332462
:100400007EC0EE81FF8180819181F2016081A10136
:100410000E949701F2018083C401B30120E030E023
:1004200040E85FE30E94DF0887FD52C0C401B301CA
:1004300020E030E04FE753E40E947F08181614F0E4
:10044000898147C06A817B818C819D8120E030E079
:100450004AE754E40E94D3075B016C0120E030E0DE
:100460004AEF54E40E94D9067B018C0120E030E081
:1004700040E85FE30E94DF0888231CF461E070E03D
:1004800023C0C801B70120E03FEF4FE757E40E94C7
:100490007F081816ACF4C601B50120E030E040E258
:1004A00051E40E94D9060E94030506C088EC90E042
:1004B0000197F1F76150704061157105B9F70BC0F4
:1004C000C801B7010E940305CB010197F1F703C0F2
:1004D00081E08A95F1F78E819F8102969F838E83BA
:1004E0000894411C511C8D54924009F08ACF089405
:1004F000211C311CFCEF2F16F3E03F0649F081E18F
:10050000482E82E0582E85E392E09F838E8379CF38
:1005100020E030E0F901EF5EFD4FD901A35BBD4F54
:100520008C9180832F5F3F4F2C30310599F72796B0
:100530000FB6F894DEBF0FBECDBFCF91DF911F91F4
:100540000F91FF90EF90DF90CF90BF90AF909F9072
:100550008F907F906F905F904F903F902F90089575
:10056000539A1092B40083E28093B00081E08093AC
:10057000B10010927000789408958093B4000895AB
:100580008091B400089510928000E1E8F0E01082BC
:10059000109285001092840087E0808396EC88E1B9
:1005A0000FB6F894A89580936000909360000FBEFA
:1005B000089580910B0290910C0208951F920F9262
:1005C0000FB60F9211242F933F938F939F93EF9326
:1005D000FF93E4E8F0E0808191819C01689414F835
:1005E000220F331F1694E1F7880F991F281B390B30
:1005F00030930C0220930B0211821082FF91EF9135
:100600009F918F913F912F910F900FBE0F901F9050
:1006100018951F920F920FB60F9211242F938F935C
:100620009F93EF93FF9380910D0290910E02209182
:10063000C600FC01E75AFD4F2083019690930E02FD
:1006400080930D028134910524F010920E021092D5
:100650000D0281E090E09093100280930F02FF91D1
:10066000EF919F918F912F910F900FBE0F901F9040
:10067000189580910F029091100208959093C500F3
:100680008093C40086E08093C20088E98093C10013
:10069000089580910F0290911002892B19F42FEF89
:1006A0003FEF1BC020915902E9E5F2E0818181937F
:1006B00082E0E839F807D1F7108280910D0290911D
:1006C0000E02019790930E0280930D02892B21F464
:1006D0001092100210920F0230E0C9010895E9E56E
:1006E000F2E0119282E0E939F807D9F7109210028E
:1006F00010920F020895982F8091C00085FFFCCFC3
:1007000000009093C6000895EF92FF920F931F93FD
:10071000DF93CF9300D000D0CDB7DEB70E9449035E
:100720008C3CE1F789838E010E5F1F4F35E0E32E8D
:10073000F12CEC0EFD1E0E943903892BE1F30E947F
:100740004903F80181938F01EE15FF05A1F78C8114
:100750008F3F09F0DBC08A8190E0FC013197E136E0
:10076000F10508F0D3C0EC5CFF4FEE0FFF1F0590C2
:10077000F491E02D09948CE7C7C08B81C5C00E941D
:10078000E40482E7C1C00E94910483E7BDC08B816D
:100790000E94BD02BBC00E94C002B6C00E94D90226
:1007A0000E947B030E94D902892F990F990BACC03C
:1007B0008B8180931102AAC08B8180931202A6C004
:1007C0008B8180931302A2C08B81809314029EC000
:1007D0008B81809315029AC08B818093160296C0FC
:1007E0008B818093170292C08B81809318028EC0F8
:1007F0008B81809319028AC08B8180931A0286C0F4
:100800008B8180931B0282C08B8180931C027EC0EF
:100810008091110279C08091120276C080911302FA
:1008200073C08091140270C0809115026DC08091D8
:1008300016026AC08091170267C08091180264C0D6
:100840008091190261C080911A025EC080911B02E2
:100850005BC080911C0258C08B8180934D0256C0B2
:100860008B8180934E0252C08B8180934F024EC089
:100870008B81809350024AC08B818093510246C085
:100880008B818093520242C08B81809353023EC081
:100890008B81809354023AC08B818093550236C07D
:1008A0008B818093560232C08B81809357022EC079
:1008B0008B81809358022AC080914D0225C080917F
:1008C0004E0222C080914F021FC0809150021CC076
:1008D0008091510219C08091520216C0809153023A
:1008E00013C08091540210C0809155020DC08091B8
:1008F00056020AC08091570207C08091580204C076
:100900008B810E94B50184E70E947B030F900F90BA
:100910000F900F90CF91DF911F910F91FF90EF906B
:10092000089520E030E0F901EF5EFD4FD901A656B1
:10093000BD4F8C9180832F5F3F4F2C30310599F74D
:10094000809199020E94BD020895CF93DF93C0E089
:10095000D0E02196CE010E942F0CFE01E756FD4FFC
:100960008083CC30D105A9F78DE090E00E942F0C58
:1009700080939902DF91CF9108950E94A50420E011
:1009800030E0F901E35BFD4FD901A656BD4F8C91D4
:1009900080832F5F3F4F2C30310599F78FEF0E94F6
:1009A000BD0288EC90E00197F1F7809199020E94D6
:1009B000BD0284E60E94B501EDE4F2E0119282E00E
:1009C000E935F807D9F70895CF93DF93C0E0D0E079
:1009D000FE01EF5EFD4F6081FE01E656FD4F608334
:1009E0002196CE010E94370CCC30D10589F70E94A8
:1009F000C002682F809399028DE090E00E94370C2E
:100A0000DF91CF910895EF92FF920F931F937B0197
:100A10008C0120E030E040E05FE40E94AF088823D2
:100A20008CF0C801B70120E030E040E05FE40E94B4
:100A30007B060E940F099B01AC01205030404040D2
:100A4000504806C0C801B7010E940F099B01AC01C4
:100A5000B901CA011F910F91FF90EF900895A0E096
:100A6000B0E0E5E3F5E00C94F80BDC012B01FA01B2
:100A70009C91923008F439C1EB018881823008F4EE
:100A800033C1943069F4843009F02FC111969C91E0
:100A900011978981981709F428C1A2E0B1E025C116
:100AA000843009F421C18230A9F4923009F01DC1CB
:100AB0009A01AD0188E0EA010990AE01E9010992CD
:100AC0009E018150C1F7E201898111969C91892391
:100AD000818308C1923009F407C112962D903C9091
:100AE0001397EB018A819B811496AD90BD90CD90B8
:100AF000DC901797EC80FD800E811F819101281BEF
:100B0000390BB90137FF04C066277727621B730BC7
:100B1000603271050CF061C0121613066CF53701D6
:100B20004801062E04C096948794779467940A949B
:100B3000D2F721E030E040E050E004C0220F331F44
:100B4000441F551F6A95D2F7215030404040504015
:100B50002E213F2140235123211531054105510507
:100B600021F021E030E040E050E079018A01E62800
:100B7000F728082919293CC0232BD1F1260E371E4E
:100B800035014601062E04C09694879477946794A5
:100B90000A94D2F721E030E040E050E004C0220F98
:100BA000331F441F551F6A95D2F7215030404040F3
:100BB00050402A213B214C215D2121153105410561
:100BC000510521F021E030E040E050E059016A0198
:100BD000A628B728C828D9280BC0821593052CF061
:100BE0001C01AA24BB24650103C0EE24FF24870155
:100BF00011969C91D20111968C91981709F445C0D9
:100C0000992339F0A80197012A193B094C095D097C
:100C100006C0A60195012E193F09400B510B57FD47
:100C200008C011823382228224833583468357830E
:100C30001DC081E081833382228288279927DC01CD
:100C4000821B930BA40BB50B84839583A683B78378
:100C50000DC0220F331F441F551F24833583468345
:100C60005783828193810197938382832481358185
:100C700046815781DA01C9010197A109B1098F5F46
:100C80009F4FAF4FBF4328F30BC091833382228223
:100C9000EA0CFB1C0C1D1D1DE482F58206831783E4
:100CA00083E08083248135814681578157FF1AC0B4
:100CB000C901AA2797FDA095BA2F81709070A070E6
:100CC000B0705695479537952795822B932BA42B7B
:100CD000B52B84839583A683B78382819381019604
:100CE00093838283DF0101C0D201CD01CDB7DEB78E
:100CF000E2E10C94140CA0E2B0E0E1E8F6E00C9420
:100D0000040C69837A838B839C832D833E834F837A
:100D10005887E9E0EE2EF12CEC0EFD1ECE01019677
:100D2000B7010E94000B8E010F5E1F4FCE0105968A
:100D3000B8010E94000B8A8991E089278A8BC7013C
:100D4000B801AE01475E5F4F0E942F050E942B0A3B
:100D5000A096E6E00C94200CA0E2B0E0E2EBF6E016
:100D60000C94040C69837A838B839C832D833E834C
:100D70004F835887F9E0EF2EF12CEC0EFD1ECE01CB
:100D80000196B7010E94000B8E010F5E1F4FCE012E
:100D90000596B8010E94000BC701B801AE01475E7D
:100DA0005F4F0E942F050E942B0AA096E6E00C944C
:100DB000200CA0E2B0E0EFEDF6E00C94F80B6983B4
:100DC0007A838B839C832D833E834F835887CE0108
:100DD0000196BE01675F7F4F0E94000BCE01059612
:100DE000BE016F5E7F4F0E94000B9985923088F0A4
:100DF00089898230C8F0943019F4823051F404C0EB
:100E0000843029F4923081F482E091E0C6C09230BF
:100E100049F420E09A858A89981321E02A87CE0137
:100E20000996BBC0823049F420E09A858A899813DC
:100E300021E02A8BCE014196B0C02D843E844F84A0
:100E400058886D887E888F88988CEE24FF248701CF
:100E5000AA24BB24650140E050E060E070E0E0E0DF
:100E6000F0E0C10181709070892BE9F0E60CF71C6D
:100E7000081D191D9A01AB012A0D3B1D4C1D5D1D5E
:100E800080E090E0A0E0B0E0E614F7040805190562
:100E900020F481E090E0A0E0B0E0BA01A901480FA1
:100EA000591F6A1F7B1FAA0CBB1CCC1CDD1C97FEA4
:100EB00008C081E090E0A0E0B0E0A82AB92ACA2AE0
:100EC000DB2A3196E032F10549F0660C771C881C6C
:100ED000991C5694479437942794C3CFFA85EA898E
:100EE0002B893C898B859C85280F391F2E5F3F4FAE
:100EF00017C0CA0181709070892B61F01695079513
:100F0000F794E79480E090E0A0E0B0E8E82AF92ABE
:100F10000A2B1B2B76956795579547952F5F3F4F6B
:100F200077FDE7CF0CC0440F551F661F771F17FDD5
:100F30004160EE0CFF1C001F111F2150304040305B
:100F400090E0590790E0690790E4790760F32B8FF0
:100F50003C8FDB01CA018F779070A070B070803435
:100F60009105A105B10561F447FD0AC0E114F10442
:100F70000105110529F0405C5F4F6F4F7F4F4078AE
:100F80001A8EFE1711F081E08A8F4D8F5E8F6F8F62
:100F900078A383E0898FCE0149960E942B0AA09600
:100FA000E2E10C94140CA8E1B0E0E9EDF7E00C9458
:100FB000000C69837A838B839C832D833E834F83CC
:100FC0005887B9E0EB2EF12CEC0EFD1ECE010196F8
:100FD000B7010E94000B8E010F5E1F4FCE010596D8
:100FE000B8010E94000B2985223008F47EC039899F
:100FF000323010F4B8017CC08A859A8989278A87A3
:10100000243011F0223031F4231709F06EC062E071
:1010100071E06EC0343039F41D861E861F86188A32
:101020001C861B8604C0323021F484E08987B70116
:101030005FC02B853C858B899C89281B390B3C879D
:101040002B87ED84FE840F851889AD88BE88CF88F4
:10105000D88CEA14FB040C051D0540F4EE0CFF1CB3
:10106000001F111F215030403C872B8720E030E0CB
:1010700040E050E080E090E0A0E0B0E460E070E0AC
:10108000EA14FB040C051D0540F0282B392B4A2BD4
:101090005B2BEA18FB080C091D09B695A7959795D7
:1010A0008795EE0CFF1C001F111F6F5F7F4F6F3184
:1010B000710531F7DA01C9018F779070A070B070B7
:1010C00080349105A105B10561F427FD0AC0E11442
:1010D000F1040105110529F0205C3F4F4F4F5F4F90
:1010E00020782D873E874F87588BBE01675F7F4FE3
:1010F000CB010E942B0A6896EAE00C941C0CA8E134
:10110000B0E0E5E8F8E00C94040C69837A838B8303
:101110009C832D833E834F83588789E0E82EF12CF2
:10112000EC0EFD1ECE010196B7010E94000B8E0150
:101130000F5E1F4FCE010596B8010E94000B8985F6
:10114000823040F08989823028F0C701B8010E94BE
:10115000780B01C08FEF6896E6E00C94200CA8E1B4
:10116000B0E0E5EBF8E00C94040C69837A838B83A0
:101170009C832D833E834F83588789E0E82EF12C92
:10118000EC0EFD1ECE010196B7010E94000B8E01F0
:101190000F5E1F4FCE010596B8010E94000B898596
:1011A000823040F08989823028F0C701B8010E945E
:1011B000780B01C08FEF6896E6E00C94200CA8E154
:1011C000B0E0E5EEF8E00C94040C69837A838B833D
:1011D0009C832D833E834F83588789E0E82EF12C32
:1011E000EC0EFD1ECE010196B7010E94000B8E0190
:1011F0000F5E1F4FCE010596B8010E94000B898536
:10120000823040F08989823028F0C701B8010E94FD
:10121000780B01C081E06896E6E00C94200CACE00D
:10122000B0E0E5E1F9E00C94080C69837A838B83E4
:101230009C83CE010196BE016B5F7F4F0E94000B25
:101240008D81823061F1823050F1843021F48E81C1
:10125000882351F12EC02F81388537FD20C06E8143
:101260002F3131051CF06623F9F023C08EE190E0A8
:10127000821B930B29853A854B855C8504C0569566
:101280004795379527958A95D2F76623B1F0509503
:101290004095309521953F4F4F4F5F4F0EC020E056
:1012A00030E040E050E009C02FEF3FEF4FEF5FE745
:1012B00004C020E030E040E050E8B901CA012C96BB
:1012C000E2E00C94240CA8E0B0E0E9E6F9E00C942C
:1012D000000C7B018C01611571058105910519F4E4
:1012E00082E0898360C083E089838EE1C82ED12C9F
:1012F000DC82CB82ED82FE820F831887C801B701A2
:101300000E94DC09FC013197F7FF3BC022273327FD
:101310002E1B3F0B57016801022E04C0D694C794C0
:10132000B794A7940A94D2F740E050E060E070E0F0
:1013300081E090E0A0E0B0E004C0880F991FAA1FF0
:10134000BB1F2A95D2F70197A109B1098E219F21D0
:10135000A023B1230097A105B10521F041E050E0A1
:1013600060E070E04A295B296C297D294D835E830A
:101370006F8378878EE190E08E1B9F0B9C838B831D
:1013800012C0309781F00E2E04C0EE0CFF1C001F1F
:10139000111F0A94D2F7ED82FE820F831887CE1AAE
:1013A000DF0ADC82CB821A82CE0101960E942B0AD0
:1013B0002896EAE00C941C0CEF92FF920F931F9377
:1013C0007B018C0180E0E81680E0F80681E00807E8
:1013D00080E0180788F48FEFE816F1040105110585
:1013E00031F028F088E090E0A0E0B0E017C080E0A5
:1013F00090E0A0E0B0E012C080E0E81680E0F806DF
:1014000080E0080781E0180728F088E190E0A0E07C
:10141000B0E004C080E190E0A0E0B0E020E230E085
:1014200040E050E0281B390B4A0B5B0B04C01695BB
:101430000795F794E7948A95D2F7F701E65FFE4F98
:101440008081281B310941095109C9011F910F9160
:10145000FF90EF900895DF92EF92FF920F931F930A
:10146000FC01E480F58006811781D1808081823083
:1014700048F480E090E0A0E1B0E0E82AF92A0A2BE5
:101480001B2BA5C0843009F49FC0823021F4EE24C8
:10149000FF24870105C0E114F1040105110519F4C9
:1014A000E0E0F0E096C0628173819FEF62387907D7
:1014B0000CF05BC022E83FEF261B370B2A313105C9
:1014C0002CF020E030E040E050E02AC0B801A70155
:1014D000022E04C076956795579547950A94D2F7E2
:1014E00081E090E0A0E0B0E004C0880F991FAA1F3F
:1014F000BB1F2A95D2F70197A109B1098E219F211F
:10150000A023B1230097A105B10521F081E090E06F
:10151000A0E0B0E09A01AB01282B392B4A2B5B2BC2
:10152000DA01C9018F779070A070B0708034910596
:10153000A105B10539F427FF09C0205C3F4F4F4F8B
:101540005F4F04C0215C3F4F4F4F5F4FE0E0F0E042
:101550002030A0E03A07A0E04A07A0E45A0710F0C4
:10156000E1E0F0E079018A0127C06038710564F597
:10157000FB01E158FF4FD801C7018F779070A07031
:10158000B07080349105A105B10539F4E7FE0DC0B6
:1015900080E490E0A0E0B0E004C08FE390E0A0E041
:1015A000B0E0E80EF91E0A1F1B1F17FF05C01695B5
:1015B0000795F794E794319687E016950795F79489
:1015C000E7948A95D1F705C0EE24FF248701EFEF59
:1015D000F0E06E2F679566276795902F9F77D794D9
:1015E000DD24D7948E2F8695492F462B582F5D29C1
:1015F000B701CA011F910F91FF90EF90DF900895FE
:10160000FC01DB01408151812281622F6F7770E004
:10161000221F2227221F9381892F880F822B282F98
:1016200030E0991F9927991F11969C9311972115C6
:101630003105A9F5411551056105710511F482E0E7
:1016400037C082E89FEF13969C938E9312979A016E
:10165000AB0167E0220F331F441F551F6A95D1F776
:1016600083E08C930DC0220F331F441F551F129629
:101670008D919C911397019713969C938E9312973B
:10168000203080E0380780E0480780E4580758F3AE
:1016900014962D933D934D935C93179708952F3F88
:1016A000310579F4411551056105710519F484E09E
:1016B0008C93089564FF03C081E08C9312C01C9248
:1016C00010C02F57304013963C932E93129783E00F
:1016D0008C9387E0440F551F661F771F8A95D1F7BB
:1016E000706414964D935D936D937C931797089552
:1016F0001F93DC01FB019C91923008F447C080816C
:10170000823008F443C0943051F411961C91843017
:1017100099F58181682F70E0611B71093FC08430A9
:1017200021F0923031F48230B9F18181882389F13E
:101730002DC011961C9111978230F1F081811817FC
:10174000D9F412962D913C9113978281938182173F
:10175000930794F028173907BCF014968D919D914A
:101760000D90BC91A02D2481358146815781281789
:1017700039074A075B0718F4112341F00AC08217A2
:101780009307A407B50740F4112319F061E070E056
:1017900005C06FEF7FEF02C060E070E0CB011F91EA
:1017A000089597FB092E07260AD077FD04D00CD0A8
:1017B00006D000201AF4709561957F4F0895F6F7D2
:1017C000909581959F4F0895AA1BBB1B51E107C0BF
:1017D000AA1FBB1FA617B70710F0A61BB70B881FC1
:1017E000991F5A95A9F780959095BC01CD01089550
:1017F0002F923F924F925F926F927F928F929F9221
:10180000AF92BF92CF92DF92EF92FF920F931F930E
:10181000CF93DF93CDB7DEB7CA1BDB0B0FB6F894BF
:10182000DEBF0FBECDBF09942A88398848885F84FF
:101830006E847D848C849B84AA84B984C884DF8070
:10184000EE80FD800C811B81AA81B981CE0FD11D54
:101850000FB6F894DEBF0FBECDBFED010895F99924
:10186000FECF92BD81BDF89A992780B50895262FA5
:10187000F999FECF1FBA92BD81BD20BD0FB6F89475
:0E188000FA9AF99A0FBE01960895F894FFCFD8
:10188E003F3F0000000000000000000102020303C1
:10189E0003030404040404040404050505050505F6
:1018AE0005050505050505050505060606060606D4
:1018BE0006060606060606060606060606060606BA
:1018CE0006060606060606060606070707070707A4
:1018DE00070707070707070707070707070707078A
:1018EE00070707070707070707070707070707077A
:1018FE00070707070707070707070707070707076A
:10190E000707070707070707070708080808080853
:10191E000808080808080808080808080808080839
:10192E000808080808080808080808080808080829
:10193E000808080808080808080808080808080819
:10194E000808080808080808080808080808080809
:10195E0008080808080808080808080808080808F9
:10196E0008080808080808080808080808080808E9
:10197E0008080808080808080808080808080808D9
:0A198E0008080808080808080808FF
:00000001FF
