:100000000C9434000C9451000C9451000C94510049
:100010000C9451000C9451000C9439020C94510032
:100020000C9451000C9451000C9451000C9451000C
:100030000C9451000C9451000C9451000C945100FC
:100040000C942D010C9451000C94C0020C9451009E
:100050000C9451000C9451000C9451000C945100DC
:100060000C9451000C94510011241FBECFEFD4E02A
:10007000DEBFCDBF11E0A0E0B1E0E2EAF6E002C0F1
:1000800005900D92A230B107D9F711E0A2E0B1E0DE
:1000900001C01D92A337B107E1F70E9453000C94F1
:1000A0004F030C940000EF92FF920F931F93DF9386
:1000B000CF9300D0CDB7DEB719821A820E94130108
:1000C0000E9405020E941E028EE090E00E94390309
:1000D000682F8093000183508C3F20F08EE090E0E9
:1000E0000E944103E09000018CE090E00E941C031C
:1000F00080E091E090933401809333010E941802D4
:1001000090933601809335010E941B029093380131
:10011000809337010E941B02029690933A018093CC
:100120003901CE0101969093480180934701CE0199
:10013000029690934A018093490185E091E0909363
:100140004C0180934B0189E091E09093540180939E
:100150005301019690935601809355010196909317
:10016000580180935701019690935A018093590149
:10017000019690935C0180935B01019690935E01E0
:1001800080935D0101969093600180935F010196D9
:100190009093620180936101019690936401809332
:1001A0006301019690936601809365010196909397
:1001B000680180936701019690936A0180936901B9
:1001C0000E94960208EC10E028EE33E0C801019787
:1001D000F1F721503040D1F7F0900001EF1461F0B9
:1001E0008F2D83508C3F98F0E09200018EE090E0DC
:1001F0006E2D0E944103FE2C8981882381F48A811F
:10020000882319F00E9467021A82EF2CDDCF8EE05E
:1002100090E06F2D0E9441038981882381F30E9421
:10022000A1021982ECCF81E085BB80936E0085BD71
:1002300015B818B88FE384B987B980E090E0FC0165
:10024000EB5EFE4F1082FC01E75FFE4F10820196CD
:100250008C309105A1F7789408951F920F920FB6F4
:100260000F9211248F939F938091030185B9809100
:10027000040188B9909102019F5F90930201903828
:1002800009F484C080911501891709F479C080911F
:100290001601981709F46EC080911701981709F498
:1002A00063C080911801981709F458C08091190112
:1002B000981709F44DC080911A01981709F442C0AB
:1002C00080911B019817C1F180911C01981771F161
:1002D00080911D01981721F180911E019817D1F08E
:1002E00080911F01981781F080912001981729F4BF
:1002F000809104018F7D809304019F918F910F90D5
:100300000FBE0F901F901895809104018F7E8093EF
:100310000401EACF80910401877F80930401E0CF3C
:10032000809104018B7F80930401D6CF80910401DA
:100330008D7F80930401CCCF809104018E7F8093C8
:100340000401C2CF809103018F7D80930301B8CF58
:10035000809103018F7E80930301ADCF80910301D3
:10036000877F80930301A2CF809103018B7F8093CD
:10037000030197CF809103018D7F809303018CCF80
:10038000809103018E7F8093030181CF80910501CD
:10039000882391F1809109018093150180910A01D0
:1003A0008093160180910B018093170180910C01BD
:1003B0008093180180910D018093190180910E01A5
:1003C00080931A0180910F0180931B01809110018D
:1003D00080931C018091110180931D018091120175
:1003E00080931E018091130180931F01809114015D
:1003F0008093200110920501109202018FE38093F7
:1004000003018093040190E03DCF539A1092B40011
:1004100083E28093B00081E08093B100109270007D
:10042000789408958091B40008958093B40008955D
:1004300084EB90E0089586E091E0089510928000AA
:10044000E1E8F0E01082109285001092840087E0CD
:10045000808396EC88E10FB6F894A89580936000AD
:10046000909360000FBE089580910601909107015E
:1004700008951F920F920FB60F9211242F933F935E
:100480008F939F93EF93FF93E4E8F0E02081318115
:10049000C901880F991F820F931F9C01220F331FE0
:1004A000220F331F820F931F880F991F909307010C
:1004B0008093060111821082FF91EF919F918F919D
:1004C0003F912F910F900FBE0F901F90189520E035
:1004D00030E0F901E75FFE4FD901AE5DBE4F8C9170
:1004E00080832F5F3F4F2C30310599F781E0809357
:1004F0000501809121010E9415020895CF93DF9399
:10050000C1E0D0E0CE010E943903FE01EF5DFE4F55
:1005100080832196CD30D105A9F78DE090E00E942F
:10052000390380932101DF91CF9108950E947E02CB
:100530008FEF0E94150281E28A95F1F70E9467020F
:100540000895CF93DF93C1E0D0E0FE01E85FFE4F56
:100550006081FE01EF5DFE4F6083CE010E9441038A
:100560002196CD30D10589F70E941202682F809321
:1005700021018DE090E00E944103DF91CF91089529
:100580001F920F920FB60F9211242F938F939F9368
:10059000EF93FF9390912F0190932E018091300162
:1005A00080932F01209131012093300180913201FD
:1005B000809331018091C60080933201992361F4C8
:1005C0008F3F31F1FF91EF919F918F912F910F907C
:1005D0000FBE0F901F9018959130A1F78F3F91F7A4
:1005E00080910001281711F0223061F7E0912F016E
:1005F000F0E0EE0FFF1FED5CFE4F0190F081E02D6B
:10060000E0818091C00085FFFCCFE093C600DACF87
:1006100080910001281711F02230A1F6E0912F01FE
:10062000F0E0EE0FFF1FED5CFE4F0190F081E02D3A
:10063000809131018083C6CF9093C5008093C40020
:1006400086E08093C20088E98093C100E3E3F1E093
:1006500088E091E08193919321E0E337F207D1F7AD
:100660000895982F8091C00085FFFCCF9093C6001D
:100670000895F999FECF92BD81BDF89A992780B56A
:100680000895262FF999FECF1FBA92BD81BD20BDD6
:100690000FB6F894FA9AF99A0FBE01960895F89455
:0206A000FFCF8A
:0206A200AA00AC
:00000001FF
